{
  "contractName": "MyFlashloanContract",
  "abi": [
    {
      "inputs": [
        {
          "internalType": "address",
          "name": "factory_",
          "type": "address"
        },
        {
          "internalType": "contract IUniswapV2Router01",
          "name": "router_",
          "type": "address"
        },
        {
          "internalType": "address payable",
          "name": "pooladdress",
          "type": "address"
        },
        {
          "internalType": "address",
          "name": "dealtoken",
          "type": "address"
        }
      ],
      "stateMutability": "nonpayable",
      "type": "constructor"
    },
    {
      "anonymous": false,
      "inputs": [
        {
          "indexed": false,
          "internalType": "uint256",
          "name": "",
          "type": "uint256"
        }
      ],
      "name": "AmountOut",
      "type": "event"
    },
    {
      "anonymous": false,
      "inputs": [
        {
          "indexed": false,
          "internalType": "address",
          "name": "",
          "type": "address"
        },
        {
          "indexed": false,
          "internalType": "uint256",
          "name": "",
          "type": "uint256"
        },
        {
          "indexed": false,
          "internalType": "uint256",
          "name": "",
          "type": "uint256"
        }
      ],
      "name": "ExecuteOperation",
      "type": "event"
    },
    {
      "anonymous": false,
      "inputs": [
        {
          "indexed": false,
          "internalType": "uint256",
          "name": "",
          "type": "uint256"
        }
      ],
      "name": "ExpectedRecievingETH",
      "type": "event"
    },
    {
      "anonymous": false,
      "inputs": [
        {
          "indexed": true,
          "internalType": "address",
          "name": "_from",
          "type": "address"
        },
        {
          "indexed": true,
          "internalType": "address",
          "name": "_assetAddress",
          "type": "address"
        },
        {
          "indexed": false,
          "internalType": "uint256",
          "name": "amount",
          "type": "uint256"
        }
      ],
      "name": "LogWithdraw",
      "type": "event"
    },
    {
      "anonymous": false,
      "inputs": [
        {
          "indexed": true,
          "internalType": "address",
          "name": "previousOwner",
          "type": "address"
        },
        {
          "indexed": true,
          "internalType": "address",
          "name": "newOwner",
          "type": "address"
        }
      ],
      "name": "OwnershipTransferred",
      "type": "event"
    },
    {
      "anonymous": false,
      "inputs": [
        {
          "indexed": false,
          "internalType": "uint256",
          "name": "",
          "type": "uint256"
        }
      ],
      "name": "PayBackLoan",
      "type": "event"
    },
    {
      "anonymous": false,
      "inputs": [
        {
          "indexed": false,
          "internalType": "uint256",
          "name": "",
          "type": "uint256"
        }
      ],
      "name": "ReturnBackTokens",
      "type": "event"
    },
    {
      "anonymous": false,
      "inputs": [
        {
          "indexed": false,
          "internalType": "uint256",
          "name": "",
          "type": "uint256"
        }
      ],
      "name": "TransferFund",
      "type": "event"
    },
    {
      "anonymous": false,
      "inputs": [],
      "name": "transferFundsBackToPoolInternalevent",
      "type": "event"
    },
    {
      "anonymous": false,
      "inputs": [],
      "name": "transferInternalEvent",
      "type": "event"
    },
    {
      "inputs": [],
      "name": "addressesProvider",
      "outputs": [
        {
          "internalType": "contract ILendingPoolAddressesProvider",
          "name": "",
          "type": "address"
        }
      ],
      "stateMutability": "view",
      "type": "function",
      "constant": true
    },
    {
      "inputs": [],
      "name": "factory",
      "outputs": [
        {
          "internalType": "address",
          "name": "",
          "type": "address"
        }
      ],
      "stateMutability": "view",
      "type": "function",
      "constant": true
    },
    {
      "inputs": [],
      "name": "loanasset",
      "outputs": [
        {
          "internalType": "address",
          "name": "",
          "type": "address"
        }
      ],
      "stateMutability": "view",
      "type": "function",
      "constant": true
    },
    {
      "inputs": [],
      "name": "owner",
      "outputs": [
        {
          "internalType": "address",
          "name": "",
          "type": "address"
        }
      ],
      "stateMutability": "view",
      "type": "function",
      "constant": true
    },
    {
      "inputs": [],
      "name": "renounceOwnership",
      "outputs": [],
      "stateMutability": "nonpayable",
      "type": "function"
    },
    {
      "inputs": [],
      "name": "router",
      "outputs": [
        {
          "internalType": "contract IUniswapV2Router01",
          "name": "",
          "type": "address"
        }
      ],
      "stateMutability": "view",
      "type": "function",
      "constant": true
    },
    {
      "inputs": [],
      "name": "tokenToDeal",
      "outputs": [
        {
          "internalType": "address",
          "name": "",
          "type": "address"
        }
      ],
      "stateMutability": "view",
      "type": "function",
      "constant": true
    },
    {
      "inputs": [
        {
          "internalType": "address",
          "name": "newOwner",
          "type": "address"
        }
      ],
      "name": "transferOwnership",
      "outputs": [],
      "stateMutability": "nonpayable",
      "type": "function"
    },
    {
      "inputs": [
        {
          "internalType": "address",
          "name": "_assetAddress",
          "type": "address"
        }
      ],
      "name": "withdraw",
      "outputs": [],
      "stateMutability": "nonpayable",
      "type": "function"
    },
    {
      "stateMutability": "payable",
      "type": "receive",
      "payable": true
    },
    {
      "inputs": [
        {
          "internalType": "address",
          "name": "tokenaddress",
          "type": "address"
        }
      ],
      "name": "setTokenToDeal",
      "outputs": [],
      "stateMutability": "nonpayable",
      "type": "function"
    },
    {
      "inputs": [
        {
          "internalType": "address",
          "name": "tokenaddress",
          "type": "address"
        }
      ],
      "name": "setdiaaddressforfee",
      "outputs": [],
      "stateMutability": "nonpayable",
      "type": "function"
    },
    {
      "inputs": [
        {
          "internalType": "uint256",
          "name": "amount",
          "type": "uint256"
        }
      ],
      "name": "flashloan",
      "outputs": [],
      "stateMutability": "nonpayable",
      "type": "function"
    },
    {
      "inputs": [
        {
          "internalType": "address",
          "name": "_reserve",
          "type": "address"
        },
        {
          "internalType": "uint256",
          "name": "_amount",
          "type": "uint256"
        },
        {
          "internalType": "uint256",
          "name": "_fee",
          "type": "uint256"
        },
        {
          "internalType": "bytes",
          "name": "_params",
          "type": "bytes"
        }
      ],
      "name": "executeOperation",
      "outputs": [],
      "stateMutability": "nonpayable",
      "type": "function"
    }
  ],
  "bytecode": "0x60c06040523480156200001157600080fd5b5060405162002dfe38038062002dfe833981810160405260808110156200003757600080fd5b8101908080519060200190929190805190602001909291908051906020019092919080519060200190929190505050816000620000796200026760201b60201c565b9050806000806101000a81548173ffffffffffffffffffffffffffffffffffffffff021916908373ffffffffffffffffffffffffffffffffffffffff1602179055508073ffffffffffffffffffffffffffffffffffffffff16600073ffffffffffffffffffffffffffffffffffffffff167f8be0079c531659141344cd1fd0a4f28419497f9722a3daafe3b4186f6b6457e060405160405180910390a35080600160006101000a81548173ffffffffffffffffffffffffffffffffffffffff021916908373ffffffffffffffffffffffffffffffffffffffff160217905550508273ffffffffffffffffffffffffffffffffffffffff1660808173ffffffffffffffffffffffffffffffffffffffff1660601b815250508373ffffffffffffffffffffffffffffffffffffffff1660a08173ffffffffffffffffffffffffffffffffffffffff1660601b8152505073eeeeeeeeeeeeeeeeeeeeeeeeeeeeeeeeeeeeeeee600360006101000a81548173ffffffffffffffffffffffffffffffffffffffff021916908373ffffffffffffffffffffffffffffffffffffffff16021790555080600260006101000a81548173ffffffffffffffffffffffffffffffffffffffff021916908373ffffffffffffffffffffffffffffffffffffffff160217905550505050506200026f565b600033905090565b60805160601c60a05160601c612b38620002c660003980610ec652508061100d52806110cc52806111e45280611343528061152152806117ce52806118ff5280611b255280611ccd52806121655250612b386000f3fe6080604052600436106100c65760003560e01c80638e0171421161007f578063eaf3d75f11610059578063eaf3d75f14610373578063ee872558146103ca578063f2fde38b14610484578063f887ea40146104d5576100cd565b80638e01714214610274578063c45a0155146102c5578063c72c4d101461031c576100cd565b806321ce4685146100d25780632cfcbc161461012957806351cff8d91461017a57806365b6c4f0146101cb578063715018a6146102065780638da5cb5b1461021d576100cd565b366100cd57005b600080fd5b3480156100de57600080fd5b506100e761052c565b604051808273ffffffffffffffffffffffffffffffffffffffff1673ffffffffffffffffffffffffffffffffffffffff16815260200191505060405180910390f35b34801561013557600080fd5b506101786004803603602081101561014c57600080fd5b81019080803573ffffffffffffffffffffffffffffffffffffffff169060200190929190505050610552565b005b34801561018657600080fd5b506101c96004803603602081101561019d57600080fd5b81019080803573ffffffffffffffffffffffffffffffffffffffff16906020019092919050505061065f565b005b3480156101d757600080fd5b50610204600480360360208110156101ee57600080fd5b8101908080359060200190929190505050610919565b005b34801561021257600080fd5b5061021b610c06565b005b34801561022957600080fd5b50610232610d8e565b604051808273ffffffffffffffffffffffffffffffffffffffff1673ffffffffffffffffffffffffffffffffffffffff16815260200191505060405180910390f35b34801561028057600080fd5b506102c36004803603602081101561029757600080fd5b81019080803573ffffffffffffffffffffffffffffffffffffffff169060200190929190505050610db7565b005b3480156102d157600080fd5b506102da610ec4565b604051808273ffffffffffffffffffffffffffffffffffffffff1673ffffffffffffffffffffffffffffffffffffffff16815260200191505060405180910390f35b34801561032857600080fd5b50610331610ee8565b604051808273ffffffffffffffffffffffffffffffffffffffff1673ffffffffffffffffffffffffffffffffffffffff16815260200191505060405180910390f35b34801561037f57600080fd5b50610388610f0e565b604051808273ffffffffffffffffffffffffffffffffffffffff1673ffffffffffffffffffffffffffffffffffffffff16815260200191505060405180910390f35b3480156103d657600080fd5b50610482600480360360808110156103ed57600080fd5b81019080803573ffffffffffffffffffffffffffffffffffffffff16906020019092919080359060200190929190803590602001909291908035906020019064010000000081111561043e57600080fd5b82018360208201111561045057600080fd5b8035906020019184600183028401116401000000008311171561047257600080fd5b9091929391929390505050610f34565b005b34801561049057600080fd5b506104d3600480360360208110156104a757600080fd5b81019080803573ffffffffffffffffffffffffffffffffffffffff169060200190929190505050611f56565b005b3480156104e157600080fd5b506104ea612163565b604051808273ffffffffffffffffffffffffffffffffffffffff1673ffffffffffffffffffffffffffffffffffffffff16815260200191505060405180910390f35b600260009054906101000a900473ffffffffffffffffffffffffffffffffffffffff1681565b61055a612187565b73ffffffffffffffffffffffffffffffffffffffff166000809054906101000a900473ffffffffffffffffffffffffffffffffffffffff1673ffffffffffffffffffffffffffffffffffffffff161461061b576040517f08c379a00000000000000000000000000000000000000000000000000000000081526004018080602001828103825260208152602001807f4f776e61626c653a2063616c6c6572206973206e6f7420746865206f776e657281525060200191505060405180910390fd5b80600360006101000a81548173ffffffffffffffffffffffffffffffffffffffff021916908373ffffffffffffffffffffffffffffffffffffffff16021790555050565b610667612187565b73ffffffffffffffffffffffffffffffffffffffff166000809054906101000a900473ffffffffffffffffffffffffffffffffffffffff1673ffffffffffffffffffffffffffffffffffffffff1614610728576040517f08c379a00000000000000000000000000000000000000000000000000000000081526004018080602001828103825260208152602001807f4f776e61626c653a2063616c6c6572206973206e6f7420746865206f776e657281525060200191505060405180910390fd5b60008073ffffffffffffffffffffffffffffffffffffffff168273ffffffffffffffffffffffffffffffffffffffff1614156107ca5760003090508073ffffffffffffffffffffffffffffffffffffffff163191503373ffffffffffffffffffffffffffffffffffffffff166108fc839081150290604051600060405180830381858888f193505050501580156107c3573d6000803e3d6000fd5b50506108b0565b8173ffffffffffffffffffffffffffffffffffffffff166370a08231306040518263ffffffff1660e01b8152600401808273ffffffffffffffffffffffffffffffffffffffff1673ffffffffffffffffffffffffffffffffffffffff16815260200191505060206040518083038186803b15801561084757600080fd5b505afa15801561085b573d6000803e3d6000fd5b505050506040513d602081101561087157600080fd5b810190808051906020019092919050505090506108af33828473ffffffffffffffffffffffffffffffffffffffff1661218f9092919063ffffffff16565b5b8173ffffffffffffffffffffffffffffffffffffffff163373ffffffffffffffffffffffffffffffffffffffff167f9207361cc2a04b9c7a06691df1eb87c6a63957ae88bf01d0d18c81e3d1272099836040518082815260200191505060405180910390a35050565b610921612187565b73ffffffffffffffffffffffffffffffffffffffff166000809054906101000a900473ffffffffffffffffffffffffffffffffffffffff1673ffffffffffffffffffffffffffffffffffffffff16146109e2576040517f08c379a00000000000000000000000000000000000000000000000000000000081526004018080602001828103825260208152602001807f4f776e61626c653a2063616c6c6572206973206e6f7420746865206f776e657281525060200191505060405180910390fd5b60606040518060200160405280600081525090506000600160009054906101000a900473ffffffffffffffffffffffffffffffffffffffff1673ffffffffffffffffffffffffffffffffffffffff16630261bf8b6040518163ffffffff1660e01b8152600401602060405180830381600087803b158015610a6257600080fd5b505af1158015610a76573d6000803e3d6000fd5b505050506040513d6020811015610a8c57600080fd5b810190808051906020019092919050505090508073ffffffffffffffffffffffffffffffffffffffff16635cffe9de30600360009054906101000a900473ffffffffffffffffffffffffffffffffffffffff1686866040518563ffffffff1660e01b8152600401808573ffffffffffffffffffffffffffffffffffffffff1673ffffffffffffffffffffffffffffffffffffffff1681526020018473ffffffffffffffffffffffffffffffffffffffff1673ffffffffffffffffffffffffffffffffffffffff16815260200183815260200180602001828103825283818151815260200191508051906020019080838360005b83811015610b9a578082015181840152602081019050610b7f565b50505050905090810190601f168015610bc75780820380516001836020036101000a031916815260200191505b5095505050505050600060405180830381600087803b158015610be957600080fd5b505af1158015610bfd573d6000803e3d6000fd5b50505050505050565b610c0e612187565b73ffffffffffffffffffffffffffffffffffffffff166000809054906101000a900473ffffffffffffffffffffffffffffffffffffffff1673ffffffffffffffffffffffffffffffffffffffff1614610ccf576040517f08c379a00000000000000000000000000000000000000000000000000000000081526004018080602001828103825260208152602001807f4f776e61626c653a2063616c6c6572206973206e6f7420746865206f776e657281525060200191505060405180910390fd5b600073ffffffffffffffffffffffffffffffffffffffff166000809054906101000a900473ffffffffffffffffffffffffffffffffffffffff1673ffffffffffffffffffffffffffffffffffffffff167f8be0079c531659141344cd1fd0a4f28419497f9722a3daafe3b4186f6b6457e060405160405180910390a360008060006101000a81548173ffffffffffffffffffffffffffffffffffffffff021916908373ffffffffffffffffffffffffffffffffffffffff160217905550565b60008060009054906101000a900473ffffffffffffffffffffffffffffffffffffffff16905090565b610dbf612187565b73ffffffffffffffffffffffffffffffffffffffff166000809054906101000a900473ffffffffffffffffffffffffffffffffffffffff1673ffffffffffffffffffffffffffffffffffffffff1614610e80576040517f08c379a00000000000000000000000000000000000000000000000000000000081526004018080602001828103825260208152602001807f4f776e61626c653a2063616c6c6572206973206e6f7420746865206f776e657281525060200191505060405180910390fd5b80600260006101000a81548173ffffffffffffffffffffffffffffffffffffffff021916908373ffffffffffffffffffffffffffffffffffffffff16021790555050565b7f000000000000000000000000000000000000000000000000000000000000000081565b600160009054906101000a900473ffffffffffffffffffffffffffffffffffffffff1681565b600360009054906101000a900473ffffffffffffffffffffffffffffffffffffffff1681565b7fcec3b0a6f90941cf69eed09013d703f1500ce530967b28404f74e4fb0384208d858585604051808473ffffffffffffffffffffffffffffffffffffffff1673ffffffffffffffffffffffffffffffffffffffff168152602001838152602001828152602001935050505060405180910390a1610fb13086612247565b841115611009576040517f08c379a000000000000000000000000000000000000000000000000000000000815260040180806020018281038252602e815260200180612a87602e913960400191505060405180910390fd5b60007f000000000000000000000000000000000000000000000000000000000000000073ffffffffffffffffffffffffffffffffffffffff1663ad5c46486040518163ffffffff1660e01b815260040160206040518083038186803b15801561107157600080fd5b505afa158015611085573d6000803e3d6000fd5b505050506040513d602081101561109b57600080fd5b810190808051906020019092919050505090508073ffffffffffffffffffffffffffffffffffffffff1663095ea7b37f000000000000000000000000000000000000000000000000000000000000000064e8d4a50fff6040518363ffffffff1660e01b8152600401808373ffffffffffffffffffffffffffffffffffffffff1673ffffffffffffffffffffffffffffffffffffffff16815260200182815260200192505050602060405180830381600087803b15801561115a57600080fd5b505af115801561116e573d6000803e3d6000fd5b505050506040513d602081101561118457600080fd5b8101908080519060200190929190505050506060600267ffffffffffffffff811180156111b057600080fd5b506040519080825280602002602001820160405280156111df5781602001602082028036833780820191505090505b5090507f000000000000000000000000000000000000000000000000000000000000000073ffffffffffffffffffffffffffffffffffffffff1663ad5c46486040518163ffffffff1660e01b815260040160206040518083038186803b15801561124857600080fd5b505afa15801561125c573d6000803e3d6000fd5b505050506040513d602081101561127257600080fd5b81019080805190602001909291905050508160008151811061129057fe5b602002602001019073ffffffffffffffffffffffffffffffffffffffff16908173ffffffffffffffffffffffffffffffffffffffff1681525050600260009054906101000a900473ffffffffffffffffffffffffffffffffffffffff16816001815181106112fa57fe5b602002602001019073ffffffffffffffffffffffffffffffffffffffff16908173ffffffffffffffffffffffffffffffffffffffff168152505060006301e133804201905060607f000000000000000000000000000000000000000000000000000000000000000073ffffffffffffffffffffffffffffffffffffffff1663d06ca61f89856040518363ffffffff1660e01b81526004018083815260200180602001828103825283818151815260200191508051906020019060200280838360005b838110156113d75780820151818401526020810190506113bc565b50505050905001935050505060006040518083038186803b1580156113fb57600080fd5b505afa15801561140f573d6000803e3d6000fd5b505050506040513d6000823e3d601f19601f82011682018060405250602081101561143957600080fd5b810190808051604051939291908464010000000082111561145957600080fd5b8382019150602082018581111561146f57600080fd5b825186602082028301116401000000008211171561148c57600080fd5b8083526020830192505050908051906020019060200280838360005b838110156114c35780820151818401526020810190506114a8565b5050505090500160405250505090507fbbd6b10b5d6b1ef3c0b40e1900f4f9e4ba30b2ff8c7fac0dde24ef703104f55a8160018151811061150057fe5b60200260200101516040518082815260200191505060405180910390a160607f000000000000000000000000000000000000000000000000000000000000000073ffffffffffffffffffffffffffffffffffffffff16637ff36ab58a8460018151811061156957fe5b60200260200101518730886040518663ffffffff1660e01b815260040180858152602001806020018473ffffffffffffffffffffffffffffffffffffffff1673ffffffffffffffffffffffffffffffffffffffff168152602001838152602001828103825285818151815260200191508051906020019060200280838360005b838110156116045780820151818401526020810190506115e9565b50505050905001955050505050506000604051808303818588803b15801561162b57600080fd5b505af115801561163f573d6000803e3d6000fd5b50505050506040513d6000823e3d601f19601f82011682018060405250602081101561166a57600080fd5b810190808051604051939291908464010000000082111561168a57600080fd5b838201915060208201858111156116a057600080fd5b82518660208202830111640100000000821117156116bd57600080fd5b8083526020830192505050908051906020019060200280838360005b838110156116f45780820151818401526020810190506116d9565b50505050905001604052505050905060008160018151811061171257fe5b602002602001015111611770576040517f08c379a0000000000000000000000000000000000000000000000000000000008152600401808060200182810382526024815260200180612adf6024913960400191505060405180910390fd5b60008160018151811061177f57fe5b602002602001015190506000600260009054906101000a900473ffffffffffffffffffffffffffffffffffffffff1690508073ffffffffffffffffffffffffffffffffffffffff1663095ea7b37f0000000000000000000000000000000000000000000000000000000000000000846040518363ffffffff1660e01b8152600401808373ffffffffffffffffffffffffffffffffffffffff1673ffffffffffffffffffffffffffffffffffffffff16815260200182815260200192505050602060405180830381600087803b15801561185757600080fd5b505af115801561186b573d6000803e3d6000fd5b505050506040513d602081101561188157600080fd5b810190808051906020019092919050505050600260009054906101000a900473ffffffffffffffffffffffffffffffffffffffff16866000815181106118c357fe5b602002602001019073ffffffffffffffffffffffffffffffffffffffff16908173ffffffffffffffffffffffffffffffffffffffff16815250507f000000000000000000000000000000000000000000000000000000000000000073ffffffffffffffffffffffffffffffffffffffff1663ad5c46486040518163ffffffff1660e01b815260040160206040518083038186803b15801561196357600080fd5b505afa158015611977573d6000803e3d6000fd5b505050506040513d602081101561198d57600080fd5b8101908080519060200190929190505050866001815181106119ab57fe5b602002602001019073ffffffffffffffffffffffffffffffffffffffff16908173ffffffffffffffffffffffffffffffffffffffff16815250507f363fb721da3d18c2d38a0a52e2f013addf6147253dc9c5e7b23e1dfdc0d582d984600181518110611a1357fe5b60200260200101516040518082815260200191505060405180910390a160008173ffffffffffffffffffffffffffffffffffffffff166370a08231306040518263ffffffff1660e01b8152600401808273ffffffffffffffffffffffffffffffffffffffff1673ffffffffffffffffffffffffffffffffffffffff16815260200191505060206040518083038186803b158015611aaf57600080fd5b505afa158015611ac3573d6000803e3d6000fd5b505050506040513d6020811015611ad957600080fd5b810190808051906020019092919050505090507f45aaab8fee383aec78847e7fca543cdd6eb38c8f1e6ec0c2ee4f122737b5fb5b816040518082815260200191505060405180910390a17f000000000000000000000000000000000000000000000000000000000000000073ffffffffffffffffffffffffffffffffffffffff1663d06ca61f82896040518363ffffffff1660e01b81526004018083815260200180602001828103825283818151815260200191508051906020019060200280838360005b83811015611bb9578082015181840152602081019050611b9e565b50505050905001935050505060006040518083038186803b158015611bdd57600080fd5b505afa158015611bf1573d6000803e3d6000fd5b505050506040513d6000823e3d601f19601f820116820180604052506020811015611c1b57600080fd5b8101908080516040519392919084640100000000821115611c3b57600080fd5b83820191506020820185811115611c5157600080fd5b8251866020820283011164010000000082111715611c6e57600080fd5b8083526020830192505050908051906020019060200280838360005b83811015611ca5578082015181840152602081019050611c8a565b5050505090500160405250505094506000611cc98c8e61236490919063ffffffff16565b90507f000000000000000000000000000000000000000000000000000000000000000073ffffffffffffffffffffffffffffffffffffffff16634a25d94a87600181518110611d1457fe5b6020026020010151848b306101f48d016040518663ffffffff1660e01b815260040180868152602001858152602001806020018473ffffffffffffffffffffffffffffffffffffffff1673ffffffffffffffffffffffffffffffffffffffff168152602001838152602001828103825285818151815260200191508051906020019060200280838360005b83811015611dba578082015181840152602081019050611d9f565b505050509050019650505050505050600060405180830381600087803b158015611de357600080fd5b505af1158015611df7573d6000803e3d6000fd5b505050506040513d6000823e3d601f19601f820116820180604052506020811015611e2157600080fd5b8101908080516040519392919084640100000000821115611e4157600080fd5b83820191506020820185811115611e5757600080fd5b8251866020820283011164010000000082111715611e7457600080fd5b8083526020830192505050908051906020019060200280838360005b83811015611eab578082015181840152602081019050611e90565b5050505090500160405250505094507fb65d4db89e95c4ab7bf238b4ad5d8b61b01528d7fd8cee4fe77f2af2e35ebe5885600181518110611ee857fe5b60200260200101516040518082815260200191505060405180910390a17fd365ed7f676e66dc4796ed38f8721621fb311f14a0e7e1ea46c383b8d880dc74816040518082815260200191505060405180910390a1611f468e826123ec565b5050505050505050505050505050565b611f5e612187565b73ffffffffffffffffffffffffffffffffffffffff166000809054906101000a900473ffffffffffffffffffffffffffffffffffffffff1673ffffffffffffffffffffffffffffffffffffffff161461201f576040517f08c379a00000000000000000000000000000000000000000000000000000000081526004018080602001828103825260208152602001807f4f776e61626c653a2063616c6c6572206973206e6f7420746865206f776e657281525060200191505060405180910390fd5b600073ffffffffffffffffffffffffffffffffffffffff168173ffffffffffffffffffffffffffffffffffffffff1614156120a5576040517f08c379a0000000000000000000000000000000000000000000000000000000008152600401808060200182810382526026815260200180612a276026913960400191505060405180910390fd5b8073ffffffffffffffffffffffffffffffffffffffff166000809054906101000a900473ffffffffffffffffffffffffffffffffffffffff1673ffffffffffffffffffffffffffffffffffffffff167f8be0079c531659141344cd1fd0a4f28419497f9722a3daafe3b4186f6b6457e060405160405180910390a3806000806101000a81548173ffffffffffffffffffffffffffffffffffffffff021916908373ffffffffffffffffffffffffffffffffffffffff16021790555050565b7f000000000000000000000000000000000000000000000000000000000000000081565b600033905090565b6122428363a9059cbb60e01b8484604051602401808373ffffffffffffffffffffffffffffffffffffffff1673ffffffffffffffffffffffffffffffffffffffff16815260200182815260200192505050604051602081830303815290604052907bffffffffffffffffffffffffffffffffffffffffffffffffffffffff19166020820180517bffffffffffffffffffffffffffffffffffffffffffffffffffffffff83818316178352505050506124d1565b505050565b60006122516125c0565b73ffffffffffffffffffffffffffffffffffffffff168273ffffffffffffffffffffffffffffffffffffffff1614156122a3578273ffffffffffffffffffffffffffffffffffffffff1631905061235e565b8173ffffffffffffffffffffffffffffffffffffffff166370a08231846040518263ffffffff1660e01b8152600401808273ffffffffffffffffffffffffffffffffffffffff1673ffffffffffffffffffffffffffffffffffffffff16815260200191505060206040518083038186803b15801561232057600080fd5b505afa158015612334573d6000803e3d6000fd5b505050506040513d602081101561234a57600080fd5b810190808051906020019092919050505090505b92915050565b6000808284019050838110156123e2576040517f08c379a000000000000000000000000000000000000000000000000000000000815260040180806020018281038252601b8152602001807f536166654d6174683a206164646974696f6e206f766572666c6f77000000000081525060200191505060405180910390fd5b8091505092915050565b7f83b5ff9ec0b5619cb21ce22fd9cbd5143a87058a6817ca704d4c60d7dc7c206b60405160405180910390a16000600160009054906101000a900473ffffffffffffffffffffffffffffffffffffffff1673ffffffffffffffffffffffffffffffffffffffff1663ed6ff7606040518163ffffffff1660e01b8152600401602060405180830381600087803b15801561248457600080fd5b505af1158015612498573d6000803e3d6000fd5b505050506040513d60208110156124ae57600080fd5b810190808051906020019092919050505090506124cc8184846125dc565b505050565b6060612533826040518060400160405280602081526020017f5361666545524332303a206c6f772d6c6576656c2063616c6c206661696c65648152508573ffffffffffffffffffffffffffffffffffffffff166126839092919063ffffffff16565b90506000815111156125bb5780806020019051602081101561255457600080fd5b81019080805190602001909291905050506125ba576040517f08c379a000000000000000000000000000000000000000000000000000000000815260040180806020018281038252602a815260200180612ab5602a913960400191505060405180910390fd5b5b505050565b600073eeeeeeeeeeeeeeeeeeeeeeeeeeeeeeeeeeeeeeee905090565b7f8174997f941b13daea6f53329aa0ec7d057a4742156f515e4a5bb8b86679dd8160405160405180910390a16126106125c0565b73ffffffffffffffffffffffffffffffffffffffff168273ffffffffffffffffffffffffffffffffffffffff1614156126525761264d838261269b565b61267e565b61267d83828473ffffffffffffffffffffffffffffffffffffffff1661218f9092919063ffffffff16565b5b505050565b606061269284846000856127d5565b90509392505050565b80471015612711576040517f08c379a000000000000000000000000000000000000000000000000000000000815260040180806020018281038252601d8152602001807f416464726573733a20696e73756666696369656e742062616c616e636500000081525060200191505060405180910390fd5b60008273ffffffffffffffffffffffffffffffffffffffff168260405180600001905060006040518083038185875af1925050503d8060008114612771576040519150601f19603f3d011682016040523d82523d6000602084013e612776565b606091505b50509050806127d0576040517f08c379a000000000000000000000000000000000000000000000000000000000815260040180806020018281038252603a815260200180612a4d603a913960400191505060405180910390fd5b505050565b60606127e0856129db565b612852576040517f08c379a000000000000000000000000000000000000000000000000000000000815260040180806020018281038252601d8152602001807f416464726573733a2063616c6c20746f206e6f6e2d636f6e747261637400000081525060200191505060405180910390fd5b600060608673ffffffffffffffffffffffffffffffffffffffff1685876040518082805190602001908083835b602083106128a2578051825260208201915060208101905060208303925061287f565b6001836020036101000a03801982511681845116808217855250505050505090500191505060006040518083038185875af1925050503d8060008114612904576040519150601f19603f3d011682016040523d82523d6000602084013e612909565b606091505b5091509150811561291e5780925050506129d3565b6000815111156129315780518082602001fd5b836040517f08c379a00000000000000000000000000000000000000000000000000000000081526004018080602001828103825283818151815260200191508051906020019080838360005b8381101561299857808201518184015260208101905061297d565b50505050905090810190601f1680156129c55780820380516001836020036101000a031916815260200191505b509250505060405180910390fd5b949350505050565b60008060007fc5d2460186f7233c927e7db2dcc703c0e500b653ca82273b7bfad8045d85a47060001b9050833f9150808214158015612a1d57506000801b8214155b9250505091905056fe4f776e61626c653a206e6577206f776e657220697320746865207a65726f2061646472657373416464726573733a20756e61626c6520746f2073656e642076616c75652c20726563697069656e74206d61792068617665207265766572746564496e76616c69642062616c616e63652c207761732074686520666c6173684c6f616e207375636365737366756c3f5361666545524332303a204552433230206f7065726174696f6e20646964206e6f7420737563636565644572726f72207768696c6520636f6e76657274696e672045544820746f20746f6b656e73a2646970667358221220252f222c2b3238187a17ac261d8228cb5e99405a70fd7954f5c5a01738e2093464736f6c63430006060033",
  "immutableReferences": {
    "800": [
      {
        "length": 32,
        "start": 4109
      },
      {
        "length": 32,
        "start": 4300
      },
      {
        "length": 32,
        "start": 4580
      },
      {
        "length": 32,
        "start": 4931
      },
      {
        "length": 32,
        "start": 5409
      },
      {
        "length": 32,
        "start": 6094
      },
      {
        "length": 32,
        "start": 6399
      },
      {
        "length": 32,
        "start": 6949
      },
      {
        "length": 32,
        "start": 7373
      },
      {
        "length": 32,
        "start": 8549
      }
    ],
    "806": [
      {
        "length": 32,
        "start": 3782
      }
    ]
  },
  "source": "pragma solidity ^0.6.2;\n\nimport \"../ez-flashloan/contracts/aave/FlashLoanReceiverBase.sol\";\nimport \"../ez-flashloan/contracts/aave/ILendingPool.sol\";\nimport \"../ez-flashloan/contracts/aave/ILendingPoolAddressesProvider.sol\";\n\nimport \"./interfaces/IUniswapV2Router01.sol\";\n\ncontract MyFlashloanContract is FlashLoanReceiverBase {\n    event ExecuteOperation(address, uint256, uint256);\n    event PayBackLoan(uint256);\n    event TransferFund(uint256);\n    event AmountOut(uint256);\n    event ReturnBackTokens(uint256);\n    event ExpectedRecievingETH(uint256);\n\n      \n\n    // 0x1c8756FD2B28e9426CDBDcC7E3c4d64fa9A54728\n\n    IUniswapV2Router01 public immutable router;\n    address public tokenToDeal;\n    address public loanasset;\n    address public immutable factory;\n\n\n    constructor(address factory_, IUniswapV2Router01 router_, address payable pooladdress,address dealtoken)\n        public\n        FlashLoanReceiverBase(pooladdress)\n    {\n        router = router_;\n                factory = factory_;\n         \n        // tokenToDeal = 0x84cA8bc7997272c7CfB4D0Cd3D55cd942B3c9419; //<--- this is diatoken  0xaD6D458402F60fD3Bd25163575031ACDce07538D;\n        loanasset = 0xEeeeeEeeeEeEeeEeEeEeeEEEeeeeEeeeeeeeEEeE;//ETH // ropsten = 0xf80A32A835F79D7787E8a8ee5721D0fEaFd78108;\n        tokenToDeal = dealtoken ;\n        // // Ropsten\n        // tokenToDeal = 0xaD6D458402F60fD3Bd25163575031ACDce07538D;\n        // diaaddressforfee = 0xf80A32A835F79D7787E8a8ee5721D0fEaFd78108;\n    }\n\n    function setTokenToDeal(address tokenaddress) public onlyOwner {\n        tokenToDeal = tokenaddress;\n    }\n\n    function setdiaaddressforfee(address tokenaddress) public onlyOwner {\n        loanasset = tokenaddress;\n    }\n\n    // amount is eth to take in loadn\n    function flashloan(uint256 amount) public onlyOwner {\n        bytes memory data = \"\";\n\n        ILendingPool lendingPool = ILendingPool(\n            addressesProvider.getLendingPool()\n        );\n        lendingPool.flashLoan(address(this), loanasset, amount, data);\n    }\n\n    function executeOperation(\n        address _reserve,\n        uint256 _amount,\n        uint256 _fee,\n        bytes calldata _params\n    ) external override {\n        emit ExecuteOperation(_reserve, _amount, _fee);\n\n        require(\n            _amount <= getBalanceInternal(address(this), _reserve),\n            \"Invalid balance, was the flashLoan successful?\"\n        );\n\n        ERC20 token2 = ERC20(router.WETH()); //dia\n        token2.approve(address(router), 999999999999);\n\n        // -----------------------Buy Tokens from Bought ETH-----------------------------\n\n\n\n        address[] memory path = new address[](2);\n        // path[0] =  0xc778417E063141139Fce010982780140Aa0cD5Ab; //WETH\n        path[0] = router.WETH();\n        path[1] = tokenToDeal;\n\n        uint256 DEADLINE = block.timestamp + 365 days;\n        uint[] memory amounts = router.getAmountsOut( _amount, path); // amount[1]\n\n        emit AmountOut(amounts[1]);\n        uint256[] memory _result = router.swapExactETHForTokens{value: _amount}(\n            amounts[1], // total token to be recieved\n            path,\n            address(this),\n            DEADLINE\n        );\n\n        require(_result[1] > 0, \"Error while converting ETH to tokens\");\n\n        uint256 tokenToDealAmount = _result[1];\n\n        ERC20 token = ERC20(tokenToDeal); //dia\n        token.approve(address(router), tokenToDealAmount);\n\n        path[0] = tokenToDeal; //Token to deal\n        path[1] = router.WETH();\n\n\n        emit TransferFund(amounts[1]);\n        uint totalTokens = token.balanceOf(address(this));\n        emit ReturnBackTokens(totalTokens);\n\n        amounts = router.getAmountsOut(totalTokens, path); // amount[1]\n\n         // -----------------------Sell Tokens-----------------------------\n        uint256 totalDebt = _amount.add(_fee);\n\n        _result = router.swapTokensForExactETH(\n            amounts[1],\n            totalTokens,\n            path,\n            address(this),\n            DEADLINE + 500\n        );\n\n         emit ExpectedRecievingETH(_result[1]);\n\n        // require(\n        //     _result[1] > totalDebt,\n        //     \"Required ETH is not enough to clear loan\"\n        // );\n\n        // Time to transfer the funds back\n        emit PayBackLoan(totalDebt);\n\n\n        transferFundsBackToPoolInternal(_reserve, totalDebt);\n    }\n}\n",
  "sourcePath": "/Users/noopurtanwar/Documents/workspace/src/github.com/niktrix/uniswaptrade/truffle/contracts/MyFlashloanContract.sol",
  "compiler": {
    "name": "solc",
    "version": "0.6.6+commit.6c089d02.Emscripten.clang"
  },
  "schemaVersion": "3.2.3",
  "updatedAt": "2020-08-17T07:19:25.721Z",
  "networkType": "ethereum",
  "devdoc": {
    "methods": {
      "owner()": {
        "details": "Returns the address of the current owner."
      },
      "renounceOwnership()": {
        "details": "Leaves the contract without owner. It will not be possible to call `onlyOwner` functions anymore. Can only be called by the current owner.     * NOTE: Renouncing ownership will leave the contract without an owner, thereby removing any functionality that is only available to the owner."
      },
      "transferOwnership(address)": {
        "details": "Transfers ownership of the contract to a new account (`newOwner`). Can only be called by the current owner."
      },
      "withdraw(address)": {
        "details": "Withdraw asset.",
        "params": {
          "_assetAddress": "Asset to be withdrawn."
        }
      }
    }
  },
  "userdoc": {
    "methods": {}
  }
}